{
  "_format": "hh-sol-artifact-1",
  "contractName": "Bank",
  "sourceName": "contracts/Bank.sol",
  "abi": [
    {
      "inputs": [],
      "stateMutability": "nonpayable",
      "type": "constructor"
    },
    {
      "anonymous": false,
      "inputs": [
        {
          "indexed": false,
          "internalType": "address",
          "name": "sender",
          "type": "address"
        },
        {
          "indexed": false,
          "internalType": "string",
          "name": "name",
          "type": "string"
        },
        {
          "components": [
            {
              "internalType": "string",
              "name": "acct_name",
              "type": "string"
            },
            {
              "internalType": "address",
              "name": "acct_address",
              "type": "address"
            },
            {
              "internalType": "uint256",
              "name": "balance",
              "type": "uint256"
            }
          ],
          "indexed": false,
          "internalType": "struct Bank.BankAccount",
          "name": "_acct",
          "type": "tuple"
        }
      ],
      "name": "AccountCreated",
      "type": "event"
    },
    {
      "anonymous": false,
      "inputs": [
        {
          "indexed": false,
          "internalType": "address",
          "name": "sender",
          "type": "address"
        },
        {
          "indexed": false,
          "internalType": "address",
          "name": "to",
          "type": "address"
        },
        {
          "indexed": false,
          "internalType": "uint256",
          "name": "amount",
          "type": "uint256"
        }
      ],
      "name": "Transfer",
      "type": "event"
    },
    {
      "anonymous": false,
      "inputs": [
        {
          "indexed": false,
          "internalType": "address",
          "name": "sender",
          "type": "address"
        },
        {
          "indexed": false,
          "internalType": "uint256",
          "name": "amount",
          "type": "uint256"
        }
      ],
      "name": "Withdraw",
      "type": "event"
    },
    {
      "inputs": [
        {
          "internalType": "string",
          "name": "_name",
          "type": "string"
        }
      ],
      "name": "createAccount",
      "outputs": [
        {
          "components": [
            {
              "internalType": "string",
              "name": "acct_name",
              "type": "string"
            },
            {
              "internalType": "address",
              "name": "acct_address",
              "type": "address"
            },
            {
              "internalType": "uint256",
              "name": "balance",
              "type": "uint256"
            }
          ],
          "internalType": "struct Bank.BankAccount",
          "name": "account",
          "type": "tuple"
        }
      ],
      "stateMutability": "nonpayable",
      "type": "function"
    },
    {
      "inputs": [
        {
          "internalType": "uint256",
          "name": "_amt",
          "type": "uint256"
        }
      ],
      "name": "deposit",
      "outputs": [],
      "stateMutability": "nonpayable",
      "type": "function"
    },
    {
      "inputs": [],
      "name": "getBalance",
      "outputs": [
        {
          "internalType": "uint256",
          "name": "balance",
          "type": "uint256"
        }
      ],
      "stateMutability": "view",
      "type": "function"
    },
    {
      "inputs": [],
      "name": "owner",
      "outputs": [
        {
          "internalType": "address",
          "name": "",
          "type": "address"
        }
      ],
      "stateMutability": "view",
      "type": "function"
    },
    {
      "inputs": [
        {
          "internalType": "address payable",
          "name": "to",
          "type": "address"
        },
        {
          "internalType": "uint256",
          "name": "_amt",
          "type": "uint256"
        }
      ],
      "name": "transfer",
      "outputs": [
        {
          "internalType": "string",
          "name": "",
          "type": "string"
        }
      ],
      "stateMutability": "payable",
      "type": "function"
    },
    {
      "inputs": [
        {
          "internalType": "address",
          "name": "",
          "type": "address"
        }
      ],
      "name": "user_account",
      "outputs": [
        {
          "internalType": "string",
          "name": "acct_name",
          "type": "string"
        },
        {
          "internalType": "address",
          "name": "acct_address",
          "type": "address"
        },
        {
          "internalType": "uint256",
          "name": "balance",
          "type": "uint256"
        }
      ],
      "stateMutability": "view",
      "type": "function"
    },
    {
      "inputs": [
        {
          "internalType": "uint256",
          "name": "_amt",
          "type": "uint256"
        }
      ],
      "name": "withdraw",
      "outputs": [
        {
          "internalType": "string",
          "name": "",
          "type": "string"
        }
      ],
      "stateMutability": "nonpayable",
      "type": "function"
    },
    {
      "stateMutability": "payable",
      "type": "receive"
    }
  ],
  "bytecode": "0x6080604052600260003373ffffffffffffffffffffffffffffffffffffffff1673ffffffffffffffffffffffffffffffffffffffff1681526020019081526020016000206004600082018160000190816200005b9190620003aa565b506001820160009054906101000a900473ffffffffffffffffffffffffffffffffffffffff168160010160006101000a81548173ffffffffffffffffffffffffffffffffffffffff021916908373ffffffffffffffffffffffffffffffffffffffff160217905550600282015481600201555050348015620000dc57600080fd5b50336000806101000a81548173ffffffffffffffffffffffffffffffffffffffff021916908373ffffffffffffffffffffffffffffffffffffffff160217905550620004ab565b7f4e487b7100000000000000000000000000000000000000000000000000000000600052602260045260246000fd5b600060028204905060018216806200016b57607f821691505b60208210810362000181576200018062000123565b5b50919050565b600081549050620001988162000152565b9050919050565b7f4e487b7100000000000000000000000000000000000000000000000000000000600052604160045260246000fd5b60008190508160005260206000209050919050565b60006020601f8301049050919050565b600082821b905092915050565b600060088302620002327fffffffffffffffffffffffffffffffffffffffffffffffffffffffffffffffff82620001f3565b6200023e8683620001f3565b95508019841693508086168417925050509392505050565b6000819050919050565b6000819050919050565b60006200028b620002856200027f8462000256565b62000260565b62000256565b9050919050565b6000819050919050565b620002a7836200026a565b620002bf620002b68262000292565b84845462000200565b825550505050565b600090565b620002d6620002c7565b620002e38184846200029c565b505050565b5b818110156200030b57620002ff600082620002cc565b600181019050620002e9565b5050565b601f8211156200035a576200032481620001ce565b6200032f84620001e3565b810160208510156200033f578190505b620003576200034e85620001e3565b830182620002e8565b50505b505050565b600082821c905092915050565b60006200037f600019846008026200035f565b1980831691505092915050565b60006200039a83836200036c565b9150826002028217905092915050565b818103620003ba575050620004a9565b620003c58262000187565b67ffffffffffffffff811115620003e157620003e06200019f565b5b620003ed825462000152565b620003fa8282856200030f565b6000601f8311600181146200042e576000841562000419578287015490505b6200042585826200038c565b865550620004a2565b601f1984166200043e87620001ce565b96506200044b86620001ce565b60005b8281101562000475578489015482556001820191506001850194506020810190506200044e565b8683101562000495578489015462000491601f8916826200036c565b8355505b6001600288020188555050505b5050505050505b565b611b9e80620004bb6000396000f3fe6080604052600436106100745760003560e01c806360e0049c1161004e57806360e0049c146101255780638da5cb5b14610164578063a9059cbb1461018f578063b6b55f25146101bf5761007b565b806312065fe014610080578063298daf5b146100ab5780632e1a7d4d146100e85761007b565b3661007b57005b600080fd5b34801561008c57600080fd5b506100956101e8565b6040516100a29190610f91565b60405180910390f35b3480156100b757600080fd5b506100d260048036038101906100cd919061101b565b6101f5565b6040516100df9190611198565b60405180910390f35b3480156100f457600080fd5b5061010f600480360381019061010a91906111e6565b6104fa565b60405161011c919061125d565b60405180910390f35b34801561013157600080fd5b5061014c600480360381019061014791906112ab565b6107d2565b60405161015b939291906112e7565b60405180910390f35b34801561017057600080fd5b506101796108a4565b6040516101869190611325565b60405180910390f35b6101a960048036038101906101a4919061137e565b6108c8565b6040516101b6919061125d565b60405180910390f35b3480156101cb57600080fd5b506101e660048036038101906101e191906111e6565b610cde565b005b6000600460020154905090565b6101fd610f41565b600073ffffffffffffffffffffffffffffffffffffffff163373ffffffffffffffffffffffffffffffffffffffff160361026c576040517f08c379a00000000000000000000000000000000000000000000000000000000081526004016102639061140a565b60405180910390fd5b600073ffffffffffffffffffffffffffffffffffffffff16600460010160009054906101000a900473ffffffffffffffffffffffffffffffffffffffff1673ffffffffffffffffffffffffffffffffffffffff1614610300576040517f08c379a00000000000000000000000000000000000000000000000000000000081526004016102f790611476565b60405180910390fd5b604051806060016040528084848080601f016020809104026020016040519081016040528093929190818152602001838380828437600081840152601f19601f8201169050808301925050505050505081526020013373ffffffffffffffffffffffffffffffffffffffff16815260200160008152509050600381908060018154018082558091505060019003906000526020600020906003020160009091909190915060008201518160000190816103b991906116d1565b5060208201518160010160006101000a81548173ffffffffffffffffffffffffffffffffffffffff021916908373ffffffffffffffffffffffffffffffffffffffff16021790555060408201518160020155505080600260003373ffffffffffffffffffffffffffffffffffffffff1673ffffffffffffffffffffffffffffffffffffffff168152602001908152602001600020600082015181600001908161046291906116d1565b5060208201518160010160006101000a81548173ffffffffffffffffffffffffffffffffffffffff021916908373ffffffffffffffffffffffffffffffffffffffff160217905550604082015181600201559050507fa707679e27b2bec8a365e74b280b206e4d02f240b53accafb16bc5abc77cd5ad338484846040516104ec94939291906117df565b60405180910390a192915050565b6060816004600201541015610544576040517f08c379a000000000000000000000000000000000000000000000000000000000815260040161053b90611872565b60405180910390fd5b816004600201600082825461055991906118c1565b9250508190555081600160003373ffffffffffffffffffffffffffffffffffffffff1673ffffffffffffffffffffffffffffffffffffffff16815260200190815260200160002060008282546105af91906118c1565b925050819055506040518060600160405280600460000180546105d1906114f4565b80601f01602080910402602001604051908101604052809291908181526020018280546105fd906114f4565b801561064a5780601f1061061f5761010080835404028352916020019161064a565b820191906000526020600020905b81548152906001019060200180831161062d57829003601f168201915b505050505081526020013373ffffffffffffffffffffffffffffffffffffffff168152602001600160003373ffffffffffffffffffffffffffffffffffffffff1673ffffffffffffffffffffffffffffffffffffffff16815260200190815260200160002054815250600260003373ffffffffffffffffffffffffffffffffffffffff1673ffffffffffffffffffffffffffffffffffffffff168152602001908152602001600020600082015181600001908161070791906116d1565b5060208201518160010160006101000a81548173ffffffffffffffffffffffffffffffffffffffff021916908373ffffffffffffffffffffffffffffffffffffffff160217905550604082015181600201559050507f884edad9ce6fa2440d8a54cc123490eb96d2768479d49ff9c7366125a9424364338360405161078d9291906118f5565b60405180910390a16040518060400160405280600a81526020017f7375636365737366756c000000000000000000000000000000000000000000008152509050919050565b60026020528060005260406000206000915090508060000180546107f5906114f4565b80601f0160208091040260200160405190810160405280929190818152602001828054610821906114f4565b801561086e5780601f106108435761010080835404028352916020019161086e565b820191906000526020600020905b81548152906001019060200180831161085157829003601f168201915b5050505050908060010160009054906101000a900473ffffffffffffffffffffffffffffffffffffffff16908060020154905083565b60008054906101000a900473ffffffffffffffffffffffffffffffffffffffff1681565b606060008054906101000a900473ffffffffffffffffffffffffffffffffffffffff1673ffffffffffffffffffffffffffffffffffffffff163373ffffffffffffffffffffffffffffffffffffffff1614610958576040517f08c379a000000000000000000000000000000000000000000000000000000000815260040161094f9061196a565b60405180910390fd5b8160046002015410156109a0576040517f08c379a000000000000000000000000000000000000000000000000000000000815260040161099790611872565b60405180910390fd5b81600460020160008282546109b591906118c1565b9250508190555081600160003373ffffffffffffffffffffffffffffffffffffffff1673ffffffffffffffffffffffffffffffffffffffff1681526020019081526020016000206000828254610a0b91906118c1565b92505081905550604051806060016040528060046000018054610a2d906114f4565b80601f0160208091040260200160405190810160405280929190818152602001828054610a59906114f4565b8015610aa65780601f10610a7b57610100808354040283529160200191610aa6565b820191906000526020600020905b815481529060010190602001808311610a8957829003601f168201915b505050505081526020013373ffffffffffffffffffffffffffffffffffffffff168152602001600160003373ffffffffffffffffffffffffffffffffffffffff1673ffffffffffffffffffffffffffffffffffffffff16815260200190815260200160002054815250600260003373ffffffffffffffffffffffffffffffffffffffff1673ffffffffffffffffffffffffffffffffffffffff1681526020019081526020016000206000820151816000019081610b6391906116d1565b5060208201518160010160006101000a81548173ffffffffffffffffffffffffffffffffffffffff021916908373ffffffffffffffffffffffffffffffffffffffff1602179055506040820151816002015590505060008373ffffffffffffffffffffffffffffffffffffffff1683604051610bde906119bb565b60006040518083038185875af1925050503d8060008114610c1b576040519150601f19603f3d011682016040523d82523d6000602084013e610c20565b606091505b5050905080610c64576040517f08c379a0000000000000000000000000000000000000000000000000000000008152600401610c5b90611a1c565b60405180910390fd5b7fddf252ad1be2c89b69c2b068fc378daa952ba7f163c4a11628f55a4df523b3ef338585604051610c9793929190611a91565b60405180910390a16040518060400160405280600a81526020017f7375636365737366756c0000000000000000000000000000000000000000000081525091505092915050565b600060038054905003610d26576040517f08c379a0000000000000000000000000000000000000000000000000000000008152600401610d1d90611b14565b60405180910390fd5b80600160003373ffffffffffffffffffffffffffffffffffffffff1673ffffffffffffffffffffffffffffffffffffffff1681526020019081526020016000206000828254610d759190611b34565b925050819055508060046002016000828254610d919190611b34565b92505081905550604051806060016040528060046000018054610db3906114f4565b80601f0160208091040260200160405190810160405280929190818152602001828054610ddf906114f4565b8015610e2c5780601f10610e0157610100808354040283529160200191610e2c565b820191906000526020600020905b815481529060010190602001808311610e0f57829003601f168201915b505050505081526020013373ffffffffffffffffffffffffffffffffffffffff168152602001600160003373ffffffffffffffffffffffffffffffffffffffff1673ffffffffffffffffffffffffffffffffffffffff16815260200190815260200160002054815250600260003373ffffffffffffffffffffffffffffffffffffffff1673ffffffffffffffffffffffffffffffffffffffff1681526020019081526020016000206000820151816000019081610ee991906116d1565b5060208201518160010160006101000a81548173ffffffffffffffffffffffffffffffffffffffff021916908373ffffffffffffffffffffffffffffffffffffffff1602179055506040820151816002015590505050565b604051806060016040528060608152602001600073ffffffffffffffffffffffffffffffffffffffff168152602001600081525090565b6000819050919050565b610f8b81610f78565b82525050565b6000602082019050610fa66000830184610f82565b92915050565b600080fd5b600080fd5b600080fd5b600080fd5b600080fd5b60008083601f840112610fdb57610fda610fb6565b5b8235905067ffffffffffffffff811115610ff857610ff7610fbb565b5b60208301915083600182028301111561101457611013610fc0565b5b9250929050565b6000806020838503121561103257611031610fac565b5b600083013567ffffffffffffffff8111156110505761104f610fb1565b5b61105c85828601610fc5565b92509250509250929050565b600081519050919050565b600082825260208201905092915050565b60005b838110156110a2578082015181840152602081019050611087565b60008484015250505050565b6000601f19601f8301169050919050565b60006110ca82611068565b6110d48185611073565b93506110e4818560208601611084565b6110ed816110ae565b840191505092915050565b600073ffffffffffffffffffffffffffffffffffffffff82169050919050565b6000611123826110f8565b9050919050565b61113381611118565b82525050565b61114281610f78565b82525050565b6000606083016000830151848203600086015261116582826110bf565b915050602083015161117a602086018261112a565b50604083015161118d6040860182611139565b508091505092915050565b600060208201905081810360008301526111b28184611148565b905092915050565b6111c381610f78565b81146111ce57600080fd5b50565b6000813590506111e0816111ba565b92915050565b6000602082840312156111fc576111fb610fac565b5b600061120a848285016111d1565b91505092915050565b600082825260208201905092915050565b600061122f82611068565b6112398185611213565b9350611249818560208601611084565b611252816110ae565b840191505092915050565b600060208201905081810360008301526112778184611224565b905092915050565b61128881611118565b811461129357600080fd5b50565b6000813590506112a58161127f565b92915050565b6000602082840312156112c1576112c0610fac565b5b60006112cf84828501611296565b91505092915050565b6112e181611118565b82525050565b600060608201905081810360008301526113018186611224565b905061131060208301856112d8565b61131d6040830184610f82565b949350505050565b600060208201905061133a60008301846112d8565b92915050565b600061134b826110f8565b9050919050565b61135b81611340565b811461136657600080fd5b50565b60008135905061137881611352565b92915050565b6000806040838503121561139557611394610fac565b5b60006113a385828601611369565b92505060206113b4858286016111d1565b9150509250929050565b7f696e76616c696420616464726573730000000000000000000000000000000000600082015250565b60006113f4600f83611213565b91506113ff826113be565b602082019050919050565b60006020820190508181036000830152611423816113e7565b9050919050565b7f596f7520616c7265616479206861766520616e206163636f756e740000000000600082015250565b6000611460601b83611213565b915061146b8261142a565b602082019050919050565b6000602082019050818103600083015261148f81611453565b9050919050565b7f4e487b7100000000000000000000000000000000000000000000000000000000600052604160045260246000fd5b7f4e487b7100000000000000000000000000000000000000000000000000000000600052602260045260246000fd5b6000600282049050600182168061150c57607f821691505b60208210810361151f5761151e6114c5565b5b50919050565b60008190508160005260206000209050919050565b60006020601f8301049050919050565b600082821b905092915050565b6000600883026115877fffffffffffffffffffffffffffffffffffffffffffffffffffffffffffffffff8261154a565b611591868361154a565b95508019841693508086168417925050509392505050565b6000819050919050565b60006115ce6115c96115c484610f78565b6115a9565b610f78565b9050919050565b6000819050919050565b6115e8836115b3565b6115fc6115f4826115d5565b848454611557565b825550505050565b600090565b611611611604565b61161c8184846115df565b505050565b5b8181101561164057611635600082611609565b600181019050611622565b5050565b601f8211156116855761165681611525565b61165f8461153a565b8101602085101561166e578190505b61168261167a8561153a565b830182611621565b50505b505050565b600082821c905092915050565b60006116a86000198460080261168a565b1980831691505092915050565b60006116c18383611697565b9150826002028217905092915050565b6116da82611068565b67ffffffffffffffff8111156116f3576116f2611496565b5b6116fd82546114f4565b611708828285611644565b600060209050601f83116001811461173b5760008415611729578287015190505b61173385826116b5565b86555061179b565b601f19841661174986611525565b60005b828110156117715784890151825560018201915060208501945060208101905061174c565b8683101561178e578489015161178a601f891682611697565b8355505b6001600288020188555050505b505050505050565b82818337600083830152505050565b60006117be8385611213565b93506117cb8385846117a3565b6117d4836110ae565b840190509392505050565b60006060820190506117f460008301876112d8565b81810360208301526118078185876117b2565b9050818103604083015261181b8184611148565b905095945050505050565b7f696e73756666696369656e742062616c616e6365000000000000000000000000600082015250565b600061185c601483611213565b915061186782611826565b602082019050919050565b6000602082019050818103600083015261188b8161184f565b9050919050565b7f4e487b7100000000000000000000000000000000000000000000000000000000600052601160045260246000fd5b60006118cc82610f78565b91506118d783610f78565b92508282039050818111156118ef576118ee611892565b5b92915050565b600060408201905061190a60008301856112d8565b6119176020830184610f82565b9392505050565b7f6e6f74206f776e65720000000000000000000000000000000000000000000000600082015250565b6000611954600983611213565b915061195f8261191e565b602082019050919050565b6000602082019050818103600083015261198381611947565b9050919050565b600081905092915050565b50565b60006119a560008361198a565b91506119b082611995565b600082019050919050565b60006119c682611998565b9150819050919050565b7f6e6f74207375636365737366756c000000000000000000000000000000000000600082015250565b6000611a06600e83611213565b9150611a11826119d0565b602082019050919050565b60006020820190508181036000830152611a35816119f9565b9050919050565b6000611a57611a52611a4d846110f8565b6115a9565b6110f8565b9050919050565b6000611a6982611a3c565b9050919050565b6000611a7b82611a5e565b9050919050565b611a8b81611a70565b82525050565b6000606082019050611aa660008301866112d8565b611ab36020830185611a82565b611ac06040830184610f82565b949350505050565b7f4e6f206163636f756e7420637265617465642079657400000000000000000000600082015250565b6000611afe601683611213565b9150611b0982611ac8565b602082019050919050565b60006020820190508181036000830152611b2d81611af1565b9050919050565b6000611b3f82610f78565b9150611b4a83610f78565b9250828201905080821115611b6257611b61611892565b5b9291505056fea2646970667358221220453c52f1acf531ae03898a32c638d4fea20c08cfb4e05e158c5604bd7fab6a5c64736f6c63430008180033",
  "linkReferences": {},
  "deployedLinkReferences": {}
}